:100000000C94D6040C94F3040C94F3040C941D2368
:100010000C94F3040C94F3040C94F3040C94F30484
:100020000C94F3040C94F3040C94102A0C94E22A1C
:100030000C9419250C94F3040C94F3040C94F3041D
:100040000C94F3040C94F3040C94F3040C94F30454
:100050000C94F3040C94BD250C94F3040C94F30459
:100060000C94F3040C94F3040C94F3040C94F30434
:100070000C94F3040C94F3040C94F3040C94F30424
:100080000C94F3040C94F3040C94F3040C94F30414
:100090000C94F3040C94F3040C94F3040C94F30404
:1000A0000C94F3040C94F3040C94F3043C073C0705
:1000B00068076807D7070A090A090A09F5078E08B9
:1000C0009F089F084F2B762B6E2C762B6E2CC22B05
:1000D000E52B6E2C3C2C4B2C80818283848586877B
:1000E00088898A8B8C8D8E8F9091929394A0A1A2F7
:1000F000A3A4A5A6A7A8A9AAABACADAEAFB0B1B258
:10010000B3B4C0C1C2C3C4C5C6C7C8C9CACBCCCDAD
:10011000CECFD0D1D2D3D40080818283848586870C
:1001200088898A8B8C8D8E8F9091929394A0A1A2B6
:10013000A3A4A5A6A7A8A9AAABACADAEAFB0B1B217
:10014000B3B40000001E0000001F001E0000001FCE
:1001500000000000002200000023001E0000001F1D
:10016000000000000020000000210020000000210D
:1001700000000000002400000025002000000021F5
:10018000000000000004000000050004000000055D
:100190000000000000080000000900040000000545
:1001A0000000000000060000000700060000000735
:1001B00000000000000A0000000B0006000000071D
:1001C00000000000001E0000001F001E0000001FB5
:1001D00000000000002200000023001E0000001F9D
:1001E000000000000020000000210020000000218D
:1001F0000000000000240000002500200000002175
:1002000000000000001E0000001F001E0000001F74
:1002100000000000002200000023001E0000001F5C
:10022000000000000020000000210020000000214C
:100230000000000000240000002500200000002134
:10024000000000000101010101010101010202029F
:100250000202020202020303030303030303040472
:10026000040404040405050505050606060606073C
:100270000707070708080808090909090A0A0A0BF5
:100280000B0B0C0C0C0D0D0D0E0E0E0F0F0F101096
:10029000111111121213131414151516161717181D
:1002A0001819191A1A1B1B1C1D1D1E1E1F20202188
:1002B0002222232424252626272829292A2B2C2DCF
:1002C0002D2E2F30313232333435363738393A3BF0
:1002D0003C3D3E3F404142434445464748494A4CE5
:1002E0004D4E4F50515354555658595A5B5D5E5FB1
:1002F000616264656668696B6C6D6F707273757747
:10030000787A7B7D7E8082838587888A8C8E8F91A8
:10031000939596989A9C9EA0A2A3A5A7A9ABADAFD2
:10032000B1B3B5B7BABCBEC0C2C4C6C9CBCDCFD1BC
:10033000D4D6D8DBDDDFE2E4E7E9EBEEF0F3F5F865
:10034000FAFDFF00AE00AF00DA0281FFD9F1DB2039
:10035000A4A62EAF00A0C000A1C800AED580A81FE3
:10036000D300408D1420000000000000003E5B4FD1
:100370005B3E003E6B4F6B3E001C3E7C3E1C0018FB
:100380003C7E3C18001C577D571C001C5E7F5E1C89
:100390000000183C180000FFE7C3E7FF0000182426
:1003A000180000FFE7DBE7FF0030483A060E0026A2
:1003B0002979292600407F05050700407F05253F54
:1003C000005A3CE73C5A007F3E1C1C0800081C1CDD
:1003D0003E7F0014227F2214005F5F005F5F0006F3
:1003E000097F017F00006689956A00606060606037
:1003F0000094A2FFA2940008047E04080010207E4E
:1004000020100008082A1C0800081C2A0808001EE2
:1004100010101010000C1E0C1E0C0030383E38302E
:1004200000060E3E0E060000000000000000005F07
:10043000000000000700070000147F147F14002450
:100440002A7F2A120023130864620036495620507E
:1004500000000807030000001C22410000004122A8
:100460001C00002A1C7F1C2A0008083E0808000007
:100470008070300000080808080800000060600074
:10048000002010080402003E5149453E0000427F12
:100490004000007249494946002141494D33001846
:1004A00014127F10002745454539003C4A4949311F
:1004B000004121110907003649494936004649499A
:1004C000291E00000014000000004034000000005D
:1004D00008142241001414141414000041221408BA
:1004E000000201590906003E415D594E007C12117F
:1004F000127C007F49494936003E41414122007F3C
:100500004141413E007F49494941007F09090901B4
:10051000003E41415173007F0808087F0000417F81
:100520004100002040413F01007F08142241007F2C
:1005300040404040007F021C027F007F0408107F83
:10054000003E4141413E007F09090906003E4151FC
:10055000215E007F091929460026494949320003D6
:10056000017F0103003F4040403F001F2040201F0B
:10057000003F4038403F00631408146300030478D0
:100580000403006159494D4300007F41414100028D
:100590000408102000004141417F000402010204D0
:1005A0000040404040400000030708000020545431
:1005B0007840007F284444380038444444280038B8
:1005C0004444287F0038545454180000087E09021F
:1005D000001824241C38007F080404780000447D9F
:1005E0004000002040403D00007F102844000000F3
:1005F000417F4000007C04780478007C0804047883
:10060000003844444438007C18242418001824245A
:10061000187C007C08040408004854545424000446
:10062000043F4424003C4040207C001C2040201C0F
:10063000003C4030403C004428102844004C90903E
:10064000907C004464544C44000008364100000093
:100650000077000000004136080000020102040299
:10066000003C2623263C00000000FE011905C121A4
:1006700031D1111111111111D13121C1010101FE2D
:10068000000000000000003E3EFFFFFFFFFF3E3E77
:100690003EFEFEFEFEFEFE00003EFFFFFFFFFFFFF0
:1006A0003EBEBEFEFEFEFEFE7E0000F8F8F800F83C
:1006B000F8F800F8F8F8F8000000FFFFFFFFFFFF70
:1006C000E0E0E0E0E0E0E0E0E0E0000000C0F0FEBC
:1006D0007E1EFEFEFEFE0000F0FCFCFE1E9EFEFCEA
:1006E000FCF0000000E0F0F0F0E0ECEEF7F370203A
:1006F000007C7C7C7E007E7E7E7F7F7F000080C0D1
:10070000E07E5B4F5BFEC00000C000DCD7DEDEDEBB
:10071000D7DC00C000000000000000000000000066
:10072000000000000000000000003F4060504869E9
:100730004B4A4A4A4A4A4A4A4A4B69485060403FF3
:10074000000000000000007C7C7F7F7F3F1F007C5A
:100750007C7F7F7F3F1F070000000F3F7F7F7F7FF1
:100760007C7D7D7D7D7D7D7D7C00007B7B7B787BC2
:100770007B7B787F7F7F3F0000007F7F7F7F7F7F55
:100780000303030303030303030300000607070730
:1007900007007F7F7F7F0000004173787E7F7F7F2F
:1007A0007B780000000F1F3F7F7F7F7F7F3F1E0C05
:1007B000001F1F1F3F003F3F3F7F7F7F00307B7F39
:1007C0007830202030787F3B0003000F7F0F0F0F21
:1007D0007F0F000300000000000000000000000088
:1007E0000000000000000000000000000000000009
:1007F00000000000000000000000000000000000F9
:1008000000000000000000000000000000000000E8
:1008100000000000000000000000000000000000D8
:1008200000000000000000000000000000000000C8
:1008300000000000000000000000000000000000B8
:1008400000000000000000000000000000000000A8
:100850000000000000000000000000000000000098
:100860000000000000000000000000000000000088
:100870000000000000000000000000000000000078
:100880000000000000000000000000000000000068
:100890000000000000000000000000000000000058
:1008A000000000000000001603630068006500728D
:1008B00000760069006C0038006F007200000028AC
:1008C000034C0069006D006900740054006500630A
:1008D0000068006E006F006C006F00670079004BCD
:1008E0000065007900730000000403090409023B5D
:1008F00000020100A0FA090400000103010100093F
:1009000021110100012240000705810308000109AF
:10091000040100010300000009211101000122323D
:1009200000070582032000011201000200000008F8
:10093000E0ECE0EC01000102000105010980A101E9
:10094000850319012AB700150126B7009501751016
:100950008100C0050C0901A101850419012AA0022A
:10096000150126A002950175108100C00501090638
:10097000A101050719E029E7150025019508750172
:1009800081029501750881010507190029FF1500ED
:1009900026FF0095067508810005081901290595AF
:1009A0000575019102950175039101C011241FBEC7
:1009B000CFEFDAE0DEBFCDBF11E0A0E0B1E0EEEABC
:1009C000FAE502C005900D92AC3CB107D9F725E0DD
:1009D000ACECB1E001C01D92A231B207E1F70E9478
:1009E0003A180C94552D0C94000060E088E191E0D9
:1009F0000C94DE1C60E088ED90E00C94DE1C0E94FC
:100A00009C15882319F00E94FA0402C00E94F50484
:100A100080E00895811106C0662311F082E509C0C7
:100A200081E507C0813039F4662311F080E501C00B
:100A30008FE40E94EA0681E0089581E0089581E054
:100A400008950C941F0508950C9423051F93CF93CC
:100A5000DF9300D000D01F92CDB7DEB749835A8311
:100A60006B833091CF0189819A81311114C0662343
:100A700059F0222349F00E94410B182F682F8981D9
:100A80009A810E94EC0A03C00E94160B182F6981FC
:100A90007A81812F04C00E94410B69817A810F9075
:100AA0000F900F900F900F90DF91CF911F910C94AA
:100AB0007E12FC01262F40815181628173818481E5
:100AC0000C94260581E00895CF93DF93EC0160E05C
:100AD0000E945905BE01DF91CF910C9424050C941E
:100AE000EC130C94E81308950E9496090E94730574
:100AF0002FEF84E39CE0215080409040E1F700C05C
:100B000000000C94E3250F931F93CF93DF938C0188
:100B100061E00E945905EC01B8010E94210588237B
:100B200009F444C0B801CE010E9419218823F1F1D3
:100B3000B801CE010E946C1E8823C1F1B801CE011C
:100B40000E947520882391F1B801CE010E94BC1A41
:100B5000882361F1F8018281882309F1CB358DE585
:100B6000D807C1F050F4C115FCE5DF0781F0CF3D97
:100B7000DC45A9F40E94721019C0CC35EDE5DE0702
:100B800061F0CD35DD4559F40E94BB0F08C00E94CD
:100B900074050CC00E94C40F02C00E94C70FC80198
:100BA000DF91CF911F910F910C941D0580E0DF9193
:100BB000CF911F910F9108950E94FC240E94F70588
:100BC0000C94141E0E94FA050C94022508950C94AE
:100BD000E60581E008950C94E9050895CF93C82FA8
:100BE0000E94E7058C2F0E94EB05CF91089580E0CD
:100BF0000C94EE050E9448240C94EE050E944824B3
:100C00009091CE01891721F08093CE010C94EE05CE
:100C10000895CF93DF93CDB7DEB72B970FB6F89437
:100C2000DEBF0FBECDBF4F83588769877A878B871A
:100C300061110E94070F9E012F5F3F4F86E0F9016F
:100C400011928A95E9F785E0FE013796D901019066
:100C50000D928A95E1F789819A814C815D81452BBE
:100C600031F09F3F31F491E08F3F19F403C091E0E0
:100C700001C090E090FF09C049815A816B817C815D
:100C80008D819E810E94280E05C0C9010E946205C7
:100C90008111F2CF2B960FB6F894DEBF0FBECDBFF9
:100CA000DF91CF910895FC01808191810E94830B97
:100CB0000895CF93882309F448C0C82F8CEF8C0F78
:100CC000813AD0F46C2F80910201909103010E942F
:100CD0009E24882349F06C2F80910201909103019A
:100CE0000E94D6240E94290F6C2F809102019091BE
:100CF00003010E94D4240CC080E28C0F883058F489
:100D0000C77081E001C0880FCA95EAF70E94EA0E19
:100D1000CF910C94290FEBE5EC0FE33040F4F0E0B9
:100D2000EC58FE4F808190E0CF910C946624C85A15
:100D3000C73158F4EC2FF0E0EE0FFF1FEA5BFE4FD7
:100D400080819181CF910C947C24CF910895882348
:100D500049F1682F8CEF860F813A38F480910201B7
:100D6000909103010E94D6240CC080E2860F883047
:100D700050F4677081E001C0880F6A95EAF70E941D
:100D8000F00E0C94290F8BE5860F833020F480E061
:100D900090E00C946624685A673120F480E090E07B
:100DA0000C947C2408951F93CF93DF93182FEB01AD
:100DB0000E945906209741F08FE99FE00197F1F7D3
:100DC00000C000002197F6CF812FDF91CF911F91B6
:100DD0000C94A706893319F064E670E002C060E560
:100DE00070E00C94D306882321F00E94EA0E0C9444
:100DF000290F0895882321F00E94F00E0C94290FEA
:100E00000895CF92DF92EF92FF920F931F93CF93AB
:100E1000DF937C01D62FC72FFC011281058102953B
:100E20000F700E94E00E8823B9F01123A9F08C2FD7
:100E3000807F803421F080E28D0F883068F08091CF
:100E4000C90282FD09C082E00E94890F0E94E00E63
:100E500091E0D82ED92601C0D12CCC2EC2948FE09F
:100E6000C8228C2D90E08C30910508F0D3C1FC0194
:100E7000EA5AFF4F0C94E82C8C2F807FCF70882388
:100E800011F0C295C07F112399F0CC2309F4A6C1BB
:100E900080E28D0F883010F0D11104C08C2F0E9499
:100EA000EA0E03C08C2F0E94FA0E0E94290F96C1F1
:100EB0008D2F0E94A706CC2309F4ACC180E28D0FD0
:100EC000883038F1DD2329F18C2F0E94000F24C0D7
:100ED0008C2F807FCF70803211F0C295C07FDD23D0
:100EE00019F0D130A1F13DC08091C90282FF17C035
:100EF000112349F0CC2329F08C2F0E94EA0E0E9486
:100F0000290F80E06CC180E00E94A706CC2309F481
:100F100081C18C2F0E94F00E0E94290F7BC11123EA
:100F200071F0002341F0013031F40E940A0F8C2B44
:100F30000E94120F6FC10E940A0F8C2B1DC000234C
:100F400019F0013009F466C10E941F0F2CC0112353
:100F500021F0063008F05EC10EC0053008F05AC11D
:100F600022C0112361F0002331F0F701858180FF59
:100F700035C18F7085838C2F0E94F3064BC10023EF
:100F800091F0D93341F4FFEF07EE13E0F150004048
:100F90001040E1F73AC12FEF31EE84E021503040AC
:100FA0008040E1F732C18C2F0E94FA0633C18C2FAA
:100FB00086958695837019F0813061F02BC11123DD
:100FC00021F08D2F9C2F937002C080E090E00E9452
:100FD000662428C1112321F08D2F9C2F937002C00D
:100FE00080E090E00E947C241DC18C2F837009F06A
:100FF00047C0111113C12D2F229526952770220F5E
:10100000220F6D2F6F70862F90E0A0E0B0E0022ECF
:1010100004C0880F991FAA1FBB1F0A94D2F7D4FFE0
:1010200010C04FE050E060E070E004C0440F551F76
:10103000661F771F2A95D2F7409550956095709559
:1010400003C040E050E0BA01C695C695C3708A015E
:101050009B01082B192B2A2B3B2BC901B801C2304D
:1010600049F058F4C13019F00E94020AD7C00E941A
:10107000F009D4C00E94140AD1C00E94EE09CEC06B
:10108000112319F08C2F817001C08695882309F4F3
:10109000C5C02D2F229526952770220F220F6D2F68
:1010A0006F70862F90E0A0E0B0E0022E04C0880FA1
:1010B000991FAA1FBB1F0A94D2F7D4FF10C04FE09C
:1010C00050E060E070E004C0440F551F661F771FBA
:1010D0002A95D2F7409550956095709503C040E0F1
:1010E00050E0BA01C695C695C3708A019B01082BD2
:1010F000192B2A2B3B2BC901B801C23049F058F4F7
:10110000C13019F00E94C70A89C00E94B50A86C082
:101110000E94D90A83C00E94280A80C0CF70112380
:1011200039F08C2F0E944E0A8D2F0E94F30676C054
:101130008D2F0E94FA068C2F0E946F0A6FC0D23F3B
:1011400021F128F4D03F41F0D13FC1F043C0D33F5B
:1011500019F1D43F79F03EC0112341F0053008F079
:1011600059C08C2F8F710E94940A54C0063008F029
:1011700051C0F7CF8091C90282FF18C0112339F006
:101180008C2F8F710E944E0A45C01123C9F38C2FFA
:101190008F710E946F0A3EC0112329F08C2F8F712E
:1011A0000E94390A37C00E94340A34C0112349F022
:1011B000CF718C2F0E944E0A63E08C2F0E946E0F1D
:1011C00029C081E00E94890F023020F182E00E9454
:1011D000890F20C0112331F0002391F28D2F0E943E
:1011E000590618C0002399F2D93341F41FEF27EEB6
:1011F00033E0115020403040E1F707C08FEF91EE0F
:10120000E4E081509040E040E1F700C000008D2F05
:101210000E94A70688EF8C0D843020F40E94482499
:101220000E94EE05DD20C9F00E94DC0E80FD15C095
:10123000F70112820E94D60E0E944E0AC7010E9438
:101240004E090E94D60EDF91CF911F910F91FF9012
:10125000EF90DF90CF900C946F0ADF91CF911F91A8
:101260000F91FF90EF90DF90CF9008950F931F9311
:10127000CF93DF93EC01688179818A810E948E0B84
:101280008C010E94EB0A0E94DC09B801CE010E9489
:101290000107DF91CF911F910F910895CF93DF93B5
:1012A000EC01988189812B813C81232B31F08F3F88
:1012B00031F481E09F3F19F403C081E001C080E078
:1012C00080FD1DC0CE010E948305811110C00E94C7
:1012D000E00E8823A1F08A81882389F08091C902D9
:1012E00082FD0DC082E0DF91CF910C94890FCE0179
:1012F0000E943609CE01DF91CF910C946405DF91F5
:10130000CF91089580E090E00E94662480E090E014
:101310000E947C240E94070F0C94290F80910201E7
:10132000909103010E94D8240C9482090E94F70E28
:101330000C948E0992959F70963079F010F492502B
:1013400001C09A50923068F4803F69F018F4883EEA
:1013500040F409C0843F29F406C0883E20F0813F54
:1013600011F080E0089581E00895FC018081918171
:101370000E94830B0E949A090895CF93DF9300D0B7
:1013800000D01F92CDB7DEB70F900F900F900F9047
:101390000F90DF91CF910895CF93DF9300D000D0CD
:1013A00000D0CDB7DEB726960FB6F894DEBF0FBEDD
:1013B000CDBFDF91CF910895089508950C94DD0974
:1013C0000C94DE090E94E0096093E8017093E90142
:1013D0008093EA019093EB010C9482090C94E2094A
:1013E0000F931F930091E8011091E9012091EA0108
:1013F0003091EB01602B712B822B932B1F910F915E
:101400000C94E2090F931F930091E8011091E901F8
:101410002091EA013091EB01602371238223932311
:101420001F910F910C94E2090F931F930091E80113
:101430001091E9012091EA013091EB0160277127B9
:10144000822793271F910F910C94E2090C94DD09D8
:101450000E94260A6093E4017093E5018093E601FF
:101460009093E7010C94820960E070E0CB010C944A
:10147000280A0F931F9341E050E060E070E08A017A
:101480009B0104C0000F111F221F331F8A95D2F742
:10149000C901B8011F910F910C94280A0F931F9353
:1014A00041E050E060E070E004C0440F551F661F4B
:1014B000771F8A95D2F78091E4019091E501A09180
:1014C000E601B091E7018A019B01082B192B2A2B19
:1014D0003B2BC901B8011F910F910C94280A0F935F
:1014E0001F9341E050E060E070E004C0440F551FDE
:1014F000661F771F8A95D2F7409550956095709535
:101500008091E4019091E501A091E601B091E7019D
:101510008A019B01082319232A233B23C901B8010F
:101520001F910F910C94280A0F931F9341E050E0F4
:1015300060E070E004C0440F551F661F771F8A9556
:10154000D2F78091E4019091E501A091E601B0917C
:10155000E7018A019B01082719272A273B27C90190
:10156000B8011F910F910C94280A0F931F930091BB
:10157000E4011091E5012091E6013091E701602B33
:10158000712B822B932B1F910F910C94280A0F9390
:101590001F930091E4011091E5012091E601309143
:1015A000E70160237123822393231F910F910C94F1
:1015B000280A0F931F930091E4011091E5012091F7
:1015C000E6013091E70160277127822793271F9159
:1015D0000F910C94280A0895990F990F890FE82FFD
:1015E000E695E695E695877051E001C0550F8A951E
:1015F000EAF785E0E89FF0011124E053FE4F20E078
:1016000030E070E04081CB01022E02C096958795B4
:101610000A94E2F78170819584278523842781933A
:101620002F5F3F4F2530310569F70895990F990FC6
:10163000890F682F669566956695982F977085E057
:10164000689FB001112440E050E080E0FB01E40F0E
:10165000F51FE053FE4F208130E0092E02C0369581
:1016600027950A94E2F721703327042E01C0220F38
:101670000A94EAF7822B4F5F5F4F4530510531F7EF
:101680000895BF92CF92DF92EF92FF920F931F9334
:10169000CF93DF938C01C090E401D090E501E090FE
:1016A000E601F090E7018091E8019091E901A091B5
:1016B000EA01B091EB01C82AD92AEA2AFB2ACFE134
:1016C000D0E0D701C6010C2E04C0B695A79597951A
:1016D00087950A94D2F780FD04C0219790F7B12C2A
:1016E00007C0BC2EB8018C2F0E9492120197A9F35B
:1016F0008B2DDF91CF911F910F91FF90EF90DF9095
:10170000CF90BF900895CF93DF93EC010E94410BDF
:10171000BE010E949212DF91CF9108951F93CF9343
:10172000DF93EB019091CF01992321F0CB010E942F
:10173000830B13C0882349F0CB010E94410B182F63
:10174000682FCE010E94EC0A04C0CB010E94160B48
:10175000182FBE01812F0E949212DF91CF911F910D
:1017600008951F93CF93DF93C091EC0116E0809111
:10177000ED01C81799F0D0E01C9FF0011D9FF00DFE
:101780001124E251FE4F4081518162817381848135
:1017900095810E94CC092196C770E9CFDF91CF9146
:1017A0001F91089540911E0250911F0260912002E6
:1017B0007091210280912202909123020C94CC0915
:1017C000EF92FF920F931F93CF93DF9380912302A9
:1017D00082958F7009F065C080912002882309F4FA
:1017E00060C08091EC01F090ED0110911E0200911B
:1017F0001F02609121027091220291E01F3F09F0C7
:1018000090E0C0910001D0910101292F96E0E92ECE
:101810008F1509F446C06115710521F00F3F21F0C5
:1018200030E003C031E001C0322F90E030FD36C01F
:10183000E89EF001E99EF00D1124DF01A251BE4F98
:1018400011963C911197301329C03C91311326C059
:1018500012963C911297311121C013964D915C91D3
:101860001497461B570B4C175D07C0F48091230259
:101870008F70806180932302ED50FE4F80818F70C6
:10188000806180838EE192E00E944E09DF91CF91CA
:101890001F910F91FF90EF900C94B10B0196877000
:1018A000B7CFDF91CF911F910F91FF90EF900895E7
:1018B0009F92AF92BF92CF92DF92EF92FF920F93DF
:1018C0001F93CF93DF93CDB7DEB761970FB6F89430
:1018D000DEBF0FBECDBF8C0185E0F801DE011D9695
:1018E00001900D928A95E1F7D8011296EC909091B3
:1018F0001E02E0911F022091210230912202211547
:10190000310531F0EF3F31F481E09F3F19F403C01E
:1019100081E001C080E0B82FB1709B2E80FD47C1EF
:10192000D8014C9111965C9111971396AD90BC9093
:1019300014978EE1C82E82E0D82EF0902002B501D7
:10194000621B730B2091000130910101FF2009F40B
:10195000D9C0809123026217730708F095C0282F21
:10196000207F09F052C05E1313C0491311C0FE2C32
:10197000E1100EC08F708061809323020E94D20B11
:10198000C6010E944E0980912302F80185834DC152
:10199000AB2831F05F3F31F481E04F3F19F403C0D1
:1019A00081E001C080E080FD03C081E08E2502C09F
:1019B00080E090E0F82FF170FF2E80FF1CC0809136
:1019C000EC012091ED0136E0821709F40BC190E0A3
:1019D000389FF001399FF00D1124E251FE4F6181D3
:1019E000561306C06081461303C06281E61203C02D
:1019F00001968770E9CFFE2CEE2009F416C1809184
:101A0000230281608093230254C05E1306C04913F1
:101A100004C0E11002C0F80199C0C8010E94B509D4
:101A2000882361F1EE2051F120912302822F8295CB
:101A30008F7090E0029774F080911E0290911F02C7
:101A400098878F831986BB86AA862C87CE01079636
:101A50000E944E0986E0F801AEE1B2E001900D92DD
:101A60008A95E1F70E94E00B0E94D20B0AC05E1734
:101A700011F1C8010E94B50981112CC0C8010E9452
:101A80004E09FF24F394D1C0282F207F81F77A2DAF
:101A9000B98AA88A6E2D89890E94BD098EE192E0DB
:101AA0000E944E0986E0D6011D928A95E9F70E94B0
:101AB000D20BF12CBAC04913DCCFE110DACFF80118
:101AC0008583C8010E944E0986E0D6011D928A9541
:101AD000E9F7ABC0EE2091F220912302822F82958C
:101AE0008F7090E002970CF4B5CF80911E02909118
:101AF0001F029A8389831B82BD82AC822E83CE0112
:101B00000196A6CF6217730708F044C0FE2CEE20A2
:101B100009F4B4CF5E1330C049132EC020912302C4
:101B200020FD21C0822F82958F70482F50E04115F3
:101B30005105C9F0F80125834F30510541F08F5F01
:101B4000982F9295907F822F8F70892B8583C80163
:101B50000E944E0986E0F801AEE1B2E001900D92DC
:101B60008A95E1F73CC086E0F801AEE1B2E0019071
:101B70000D928A95E1F759C0C8010E94B5098111FB
:101B800069CF80912302816080932302C8010E9463
:101B90004E094BC07A2DB98AA88A6E2D89890E9478
:101BA000BD0986E0D6011D928A95E9F718C0EE209E
:101BB00009F464CFC8010E94B509F82E882309F4FE
:101BC0005DCF86E0F801AEE1B2E001900D928A951A
:101BD000E1F78EE192E00E9453060E94E00B0E9422
:101BE000D20B23C04D875E878D859E850E94830B17
:101BF000292F22952F70223028F49F7039F08111FF
:101C000005C00BC0243028F49F7049F4805E8830F2
:101C100020F0C8010E944E099F2CF92C06C0D80163
:101C200015969C91907F91F7F8CF8F2D61960FB606
:101C3000F894DEBF0FBECDBFDF91CF911F910F9102
:101C4000FF90EF90DF90CF90BF90AF909F9008955E
:101C50001F93CF93DF93CDB7DEB72C970FB6F894D1
:101C6000DEBF0FBECDBF4F83588769877A878B87CA
:101C70009C87CE0107960E94580C8823D1F09F8143
:101C800088852A853B85232B31F08F3F31F481E015
:101C90009F3F19F403C081E001C080E080FD47C090
:101CA0004F81588569857A858B859C850E94CC09F2
:101CB0003EC086E0FE013796DE01119601900D923E
:101CC0008A95E1F7FF81E8856A857B856115710555
:101CD00031F0EF3F31F481E0FF3F19F403C081E0C0
:101CE00001C080E080FD23C02091ED0130E0C901FA
:101CF0000196877099274091EC0150E08417950771
:101D0000F1F1F983EA837D836C8396E0929FD001A1
:101D1000939FB00D1124A251BE4FFE013196019048
:101D20000D929A95E1F78093ED010E94B10B16E0B8
:101D30008091EC019091ED01891771F1189FC0011C
:101D4000112482519E4F0E94580C882329F1E09162
:101D5000EC011E9FF0011124E251FE4F40815181A0
:101D600062817381848195810E94CC098091EC010C
:101D700090E00196877099278093EC01D9CF0E945B
:101D800096091092ED011092EC01EEE1F2E086E08E
:101D9000DF011D928A95E9F72C960FB6F894DEBF05
:101DA0000FBECDBFDF91CF911F91089580912C027E
:101DB000859585958595089580912C028770089565
:101DC00090912C02977081E009F480E00895809151
:101DD0003702089590913702892B80933702089536
:101DE000809590913702892380933702089510924D
:101DF0003702089590913602892B80933602089518
:101E0000809590913602892380933602089510922E
:101E10003602089580912D02089508950C940D0FB7
:101E20000C940E0F9091C90292FD08C090912D0262
:101E3000981721F080932D020C94100F0895809133
:101E40002D02882329F010922D0280E00C94100FAF
:101E50000895CF93DF93E0910201F0910301809107
:101E600037028083E0910201F0910301908180911B
:101E70003602892B808380912D02882381F0E091A6
:101E80000201F09103019081892B808380910201EE
:101E9000909103010E94922481110E941F0FC09112
:101EA0000201D091030148E050E064E272E0CE010B
:101EB0000E94F72C892B69F088E0FE01A4E2B2E0D1
:101EC00001900D928A95E1F7CE01DF91CF910C94AC
:101ED0005B24DF91CF9108950C940D0F9091C9026E
:101EE00092FD10C098E0899F90011124262B209329
:101EF0002C020E944E0A80912C028595859585952D
:101F00000C946C0F0C944E0A10922C0280E00C94EE
:101F10006C0F20912C028095822380932C02982FA5
:101F2000977099F430E0482F082E000C550B2417B9
:101F3000350759F09091C90292FD07C085958595A6
:101F400085950E946F0A0C94840F08959091C902A0
:101F500092FB222720F9281769F080FB92F99093D1
:101F6000C9028091C8029091C9020E94EE0F82E0DE
:101F70000C94890F08958091C90282FB882780F90B
:101F800091E089270C94A60F81E00C94A60F80E0C5
:101F90000C94A60F80E090E00E941B2D21E0893E6A
:101FA0009E4F09F020E0822F089582E090E00C948B
:101FB0000D2D83E090E00C940D2DCF9384E090E004
:101FC0000E940D2DC82F82E290E00E940D2D2C2F33
:101FD00030E0A901582BCA01CF910895CF93C92FA2
:101FE000682F84E090E00E94212D6C2F82E290E027
:101FF000CF910C94212DAB01BC018FE090E00C94AB
:10200000332DAB01BC0183E190E00C94332D60E0F3
:1020100070E0CB010C94011060E070E0CB010E94F5
:10202000FB0F0C94071069EE7EEF80E090E00E94B9
:102030003F2D60E082E090E00E94212D60E083E08F
:1020400090E00E94212D1092E8011092E901109277
:10205000EA011092EB0160E084E090E00E94212D03
:1020600060E082E290E00E94212D60E085E090E057
:102070000E94212D60E086E090E00E94212D6FEF0C
:1020800087E090E00E94212D40E050E0BA0188E016
:1020900090E00E94332D60E08DE090E00E94212DC1
:1020A00040E050E0BA0188E190E00E94332D60E00A
:1020B00087E190E00E94212D40E050E0BA018CE1E0
:1020C00090E00E94332D60E070E080E290E00E949A
:1020D0003F2D40E050E0BA0188E190E00E94332DAE
:1020E0000C940C100C941310682F8EE090E00C945C
:1020F000212D0E94862560934802709349028093A7
:102100004A0290934B02609344027093450280937D
:1021100046029093470208950E94862560934802E4
:102120007093490280934A0290934B02609340025D
:10213000709341028093420290934302089585B7C1
:10214000806885BF85B7806885BF08950C949C150D
:1021500008950C94A8100C94A8100C94AB100C9437
:10216000A8100C94AF100C94A8100E949F108FEA36
:1021700093E10E943E240E94B3100C94B1100E947F
:10218000A9100C94A8100E94B2130C94ED050E94A3
:1021900071250E946E130E94B6150E94ED140E94D4
:1021A000C3100E945E1B80E00E94B71B0E94851A2C
:1021B0000E94BD1F0E94C0150C94AD108F929F927B
:1021C000AF92BF92CF92DF92EF92FF920F931F9345
:1021D000CF93DF93CDB7DEB72A970FB6F894DEBF63
:1021E0000FBECDBF0E941115982E81110E9479104B
:1021F00088E3A82E82E0B82E00E010E0802E802F29
:102200000E94D613D82EF501C1905F01C826B1F403
:102210000F5F1F4F0830110589F78FEF89838A837D
:102220001B820E947A258160782F9D838C8349814F
:102230005A816B818D810E9409062FC080914C02CA
:1022400081FD0E94DC13E12CFF24F3948C2D8F215F
:10225000F1F00E94A610882399F0EE828F82DF2091
:1022600081E009F480E088870E947A258160782FD8
:102270009A8789874E815F8168858A850E940906D1
:10228000F801E85CFD4F8081F826F08206C0E394F7
:10229000FF0CF4E0EF12DACFBBCF81E0911001C068
:1022A00080E02A960FB6F894DEBF0FBECDBFDF9157
:1022B000CF911F910F91FF90EF90DF90CF90BF9043
:1022C000AF909F908F900895CF93DF930E94DE1080
:1022D000D82F0E949C150E94D81FC82F81110E94E0
:1022E0008C100E94301ED11101C0C1110E94F01C3F
:1022F000DF91CF910C94FE05CF93DF930E9497124C
:10230000EC01811522E59207E8F5811531E5930787
:1023100008F0B6C0883E910528F5803E910508F08A
:10232000E9C0883A910570F4853A910508F07AC0C1
:102330008130910509F473C008F4D9C0049708F0FE
:10234000D9C0D5C08F3B910508F0D1C0C85AD0E0A4
:10235000CC0FDD1FC958DE4F0990D881C02DCE01AA
:102360009464C9C0811540E5940708F069C08115DF
:1023700050E4950708F060C09A9581159F4108F4D4
:10238000B9C0B5C0811536E5930728F5811545E537
:10239000940708F092C0811554E5950708F087C0AE
:1023A000AC0143705527282F26952695C115D34596
:1023B00008F06CC081E090E002C0880F991F4A9538
:1023C000E2F740E2249F90011124EC01C22BD32BB1
:1023D000CE019C6890C081152AE5920780F4811592
:1023E00039E5930708F072C0811548E5940708F4B1
:1023F0007EC0D82FCC27CE01806F906A7CC09056CB
:102400008115904208F073C08D2F8F710E942B139D
:10241000DD27D0628F71AE01582BCA016CC081E0FC
:1024200090E069C0C55AD0E0CB55DE4F8881C82FF7
:10243000D0E0CE0190645FC0DF70CE01906A5BC0D7
:1024400074E0969587957A95E1F7282F23703C2FB5
:10245000337081E090E002C0880F991F3A95E2F74F
:102460009C68AC01522B9A019C2F9F709695969573
:1024700050E2959FE0011124C9018C2B9D2B3BC09C
:10248000D82FCC27CE01816F906A35C081E090E0D3
:1024900002C0880F991F4A95E2F750E2259F9001EC
:1024A0001124EC01C22BD32BCE019A6824C0D82F63
:1024B000CC27CE01846F906A1EC00E942B138F71AF
:1024C00090E0D82FCC27CE01906215C08F700E946B
:1024D0002B1394E0D695C7959A95E1F7CF70D0E08D
:1024E000DC2FCC27D0699E01282BC90104C080E0D5
:1024F00090E001C0CE01DF91CF910895E72FF0E089
:1025000098E0899FE00DF11D1124EE0FFF1FEE0FE3
:10251000FF1FE60FF11DEE0FFF1FED5BFE4F8591D4
:10252000949108950E947E120E947C110895823831
:10253000910569F1B0F48133910509F46DC048F457
:102540008932910509F463C08A32910509F469C0A2
:1025500008958533910509F455C089339105B9F083
:102560000895833E910569F138F4803E9105B1F0FC
:10257000823E910509F10895863E9105A9F1873EB5
:102580009105B9F1843E910509F064C023C0209102
:10259000C80220FD4FC021FD4DC008958091C802A2
:1025A00080FD44C08091C90280FF44C08091C80270
:1025B00084FD42C083EE4DC08091C80282FF38C0C6
:1025C000F5CF8091C80282FD33C08091C90280FDA1
:1025D00031C0ECCF8091C90281FF32C08091C80226
:1025E00084FD2AC087EE35C08091C80283FF26C0D3
:1025F000F5CF8091C80283FD21C08091C90281FD81
:102600001FC0ECCF8091C80285FD1CC01DC0809109
:10261000C80285FD19C016C08091C80286FD16C08B
:1026200017C08091C80286FD13C010C089E311C095
:1026300082EE0FC080EE0DC080E00BC086EE09C0B8
:1026400084EE07C089E205C085E303C08AE201C0C9
:1026500081E390E008959091C80292FF0DC0282F69
:102660002871283019F4877F846006C0282F2471D0
:10267000243011F48B7F886093FF0DC0282F2871C0
:10268000283119F4877E846106C0282F24712431F3
:1026900011F48B7E88612091C90220FF0DC0382F74
:1026A0003871383019F4877F816006C0382F317156
:1026B000313011F48E7F886021FF0DC0282F2871E2
:1026C000283119F4877E816106C0282F21712131BC
:1026D00011F48E7E886194FD877E08951092C40265
:1026E0001092C5021092C6021092C7020895CF92AE
:1026F000DF92EF92FF926B017C010E949C15811189
:102700000EC00E948625C61AD70AE80AF90AC092A6
:10271000C402D092C502E092C602F092C702FF90B6
:10272000EF90DF90CF9008950F931F930E949C1518
:10273000882321F01F910F910C9486250E948625F5
:102740000091C4021091C5022091C6023091C702C7
:10275000600F711F821F931F1F910F91089580E0DA
:10276000089508950E94CA0F811102C00E9472103C
:102770000E94D50F80934C020E94DD0F9093C902F6
:102780008093C8020E94B1130E94D90F682F70E095
:1027900080E090E00E94EE096091E4017091E50113
:1027A0008091E6019091E7010C94260AE82FF0E071
:1027B000ED52FD4F80810895089580EA8A95F1F7E2
:1027C000089500C008950C94DD1308950C94E5134A
:1027D0000C94E6130C94E5130C94EA130C94E51393
:1027E0000F931F93CF93DF9300D000D0CDB7DEB708
:1027F0000E949C156091DB028823E9F119821A82FC
:102800001B821C82862F90E08E010F5F1F4FB80144
:102810008D529D4F0E94CE15882389F08091CA0267
:1028200090E044E050E0B8018D529D4F0E94F72C9B
:1028300021E020934D02892B69F410E019C08091AA
:102840004D028823D1F384E0F80111928A95E9F7CB
:1028500010924D02E091CA02F0E0ED52FD4F8981E5
:102860009A81AB81BC8180839183A283B38311E081
:102870000E9471050DC070E06D527D4F8091CA02BB
:1028800090E08D529D4F0E9458160E94EE1310E06A
:10289000812F0F900F900F900F90DF91CF911F918C
:1028A0000F910895F894E82FE295EF70F0E031A1D0
:1028B000282F2F7081E090E001C0880F2A95EAF759
:1028C000982F9095932391A392A1892B82A378941A
:1028D00008950F931F93CF93DF93CCEAD1E08991B2
:1028E0008F3F11F00E94521481E0C03BD807B9F726
:1028F000C8EAD1E00CEA11E089918F3F11F00E9403
:1029000052140C171D07C1F7DF91CF911F910F9142
:102910000895CF92DF92EF92FF920F931F93CF9380
:10292000DF938C01C62FD0E0CE0184559E4F7C01F1
:10293000FC0190819F3F09F447C0D62EF894E92FFF
:10294000E295EF70F0E081A19F7021E030E001C0DE
:10295000220F9A95EAF7822B81A382A12095282342
:1029600022A378940E94E113E8EAF1E04CEA51E0F6
:1029700031E0C12C21912F3F89F0A22FA295AF7099
:10298000B0E090968C9190E02F7002C0959587955D
:102990002A95E2F780FD02C0832F01C080E0C82A9B
:1029A000330F4E175F0731F7F70180818F3F11F02A
:1029B0000E94521461E0C11001C060E08D2D0E94A0
:1029C000E313C00FD11FC882DF91CF911F910F91E8
:1029D000FF90EF90DF90CF90089580910401809157
:1029E0000401811102C094E001C090E09093DB02E9
:1029F00084E0891B8093CA020E94691488E0E3ED99
:102A0000F2E0DF01982F1D929A95E9F7EBECF2E0E6
:102A1000DF011D928A95E9F784E00E9465150C9408
:102A20006F05EF92FF920F931F93CF93DF93CDB774
:102A3000DEB728970FB6F894DEBF0FBECDBF8E016C
:102A40000F5F1F4F88E0F80111928A95E9F7F12C8A
:102A50006F2DC8010E948914F394F4E0FF12F8CF9F
:102A600048E050E0B8018BEC92E00E94F72C7C012A
:102A700021E0892B09F420E0E114F10441F088E021
:102A8000F801ABECB2E001900D928A95E1F760910C
:102A9000DB0270E06D527D4F44E08BEC92E00E94CF
:102AA0006615EF2819F40E94F01302C081E090E04F
:102AB00028960FB6F894DEBF0FBECDBFDF91CF9141
:102AC0001F910F91FF90EF9008950895FF920F933B
:102AD0001F93CF93DF938C01F62ED72FC42F222381
:102AE00049F081E0809350020E947A2590934F0232
:102AF00080934E02809150028823C1F080914E0253
:102B000090914F020E949225059780F0EF2DFD2FA6
:102B1000D8014C2F50E0CD01801B910B84179507F5
:102B20001CF48D918193F7CF10925002DF91CF91D9
:102B30001F910F91FF9008958091530281110DC054
:102B40000E94A72C811102C082E001C081E0809325
:102B50005302823011F40E94A22C81E09091530222
:102B6000913009F080E008950C949C150E94B415F2
:102B7000809304010E949C1581110C9406160895FF
:102B80000E949C15811102C00C940816089581E0E2
:102B9000909154029A3008F080E008950F931F93AB
:102BA000CF93DF93EC018B01809154028A3038F48B
:102BB000B801CE010E94561681111DC00AC0809135
:102BC0005102909152020E949225843F914080F7D9
:102BD00015C0809154028F3F19F08F5F809354028B
:102BE000809154028A3060F00E947A2590935202BC
:102BF0008093510203C01092540202C080E001C0D1
:102C000081E0DF91CF911F910F9108950C94D7220D
:102C10000C94DA22DF92EF92FF920F931F93CF93DF
:102C2000DF937901C82F880FDD0B41155105A9F0FD
:102C3000FE0193E0EE0FFF1F9A95E1F7EB5FFE4F69
:102C4000818192818B5A9D4F208130E0421753073A
:102C500008F49A01A9010E94042DCE010E94C32309
:102C6000D82E8823D1F001151105B9F083E0CC0FDF
:102C7000DD1F8A95E1F7FE01EB5FFE4F438150E0D7
:102C80000417150708F4A801CB5FDE4F6C817D8126
:102C90006B5A7D4FC7010E94042D8D2DDF91CF917E
:102CA0001F910F91FF90EF90DF9008950C94BA1749
:102CB0000C94DE170F931F93CF93DF9300D000D0B7
:102CC000CDB7DEB76091700270917102809172028F
:102CD000909173020E94A1256436710581059105CA
:102CE00028F10E949413DC01CB010296A11DB11DB5
:102CF00089839A83AB83BC8300E010E020E030E05E
:102D000044E050E0BE016F5F7F4F84E00E940A16EE
:102D1000182F882361F00E948625609370027093BB
:102D20007102809372029093730201C011E0812FAF
:102D30000F900F900F900F90DF91CF911F910F91F7
:102D400008957F928F929F92AF92BF92CF92DF921F
:102D5000EF92FF920F931F93CF93DF931F92CDB704
:102D6000DEB7762E4A015901680101E010E09E01AC
:102D70002F5F3F4F40E050E060E070E00E940A1695
:102D8000182F882379F1F401608171818281938108
:102D90000E94A1256436710581059105E0F0870147
:102DA000950140E050E060E070E0872D0E940A1637
:102DB000182FB701C6010E945F1B91E029812813DB
:102DC00090E01923A1F00E948625F40160837183AD
:102DD000828393830CC0B701C6010E945F1B998157
:102DE0008913DDCFA701B601C5010E94042D812FF3
:102DF0000F90DF91CF911F910F91FF90EF90DF9097
:102E0000CF90BF90AF909F908F907F900895EF925A
:102E1000FF920F931F93CF93DF931F92CDB7DEB72F
:102E20000091B0011091B1010A5F1F4FEE24E394AD
:102E3000F12C9E012F5F3F4F4CE652E063E082E0B1
:102E40000E94A116182F882321F0CE0101960E941E
:102E50003620812F0F90DF91CF911F910F91FF901E
:102E6000EF900895CF92DF92EF92FF920F931F930E
:102E7000CF93DF9300D000D0CDB7DEB76B010091C8
:102E8000B0011091B1010F5F1F4F84E0E82EF12CCB
:102E90009E012F5F3F4F48E652E061E080E00E94D4
:102EA000A116882361F049815A816B817C8140930E
:102EB00064025093650260936602709367024091CA
:102EC0006402509165026091660270916702F6019A
:102ED00040835183628373830F900F900F900F9004
:102EE000DF91CF911F910F91FF90EF90DF90CF90E6
:102EF0000895AF92BF92CF92DF92EF92FF920F931D
:102F00001F93CF93DF937C015B016A010E94C71579
:102F1000811103C001E010E002C00AE010E0C1E04E
:102F2000D0E0F894B501C701F601099578948111B4
:102F300015C021960C171D0794F0CC9F9001CD9FD2
:102F4000300D300D112480E090E045E34A95F1F713
:102F50000000019682179307C1F7E3CF81E0DF916C
:102F6000CF911F910F91FF90EF90DF90CF90BF9086
:102F7000AF9008950F931F93CF93DF93EC018B01D4
:102F800042E357E10E947917882391F047E057E127
:102F9000B801CE010E947917882351F04AE556E125
:102FA000B801CE01DF91CF911F910F910C94791749
:102FB00080E0DF91CF911F910F9108950F931F93A0
:102FC000CF93DF931F92CDB7DEB7F8940091B00195
:102FD0001091B101C801019624E0FB01DC010190D0
:102FE0000D922A95E1F764E070E00E945F1BF80102
:102FF00080837894F894CE0101960E942D208981D7
:10300000F801868361E070E0CE0101960E945F1BAB
:10301000F80185837894F89467817085818592851D
:10302000009160021091610220916202309163026E
:10303000601771078207930751F0609360027093E5
:10304000610280936202909363020E9477137894E6
:103050000F90DF91CF911F910F9108950E946827E3
:103060000E94C7100C9474270E9478270E94641154
:103070000C9492270E9418250E944F270E94B51099
:103080000E942E180E9434180E94BF10FBCFEF92AE
:10309000FF920F931F93CF93DF938B01682F111132
:1030A0000AC0442329F0E82FF0E0ED5BFD4F649166
:1030B000762F862F75C0212F30E0E82FF0E04423D3
:1030C00021F0ED5BFD4FE491F0E046E0049FC0018C
:1030D0001124CFEFD0E0BE010E94C02C4BEA460382
:1030E000C001479F900D1124800F911D800F911DED
:1030F000982F990F890FAE01421B530B4E9FD001A1
:103100004F9FB00D5E9FB00D11249B2F189FA00103
:103110001124452F55278E01041B150B0E9FA0016E
:103120000F9F500D1E9F500D11247E01E81AF108CB
:10313000E29E8001E39E100DF29E100D1124212FBE
:103140003327C21BD30BCE9F9001CF9F300DDE9F44
:10315000300D112462307105A9F048F46115710534
:1031600069F061307105C9F48B2F752F0DC0643083
:10317000710581F058F06630710579F47E2F8B2F40
:10318000932F0DC0832F7B2F9E2F09C08E2F7B2F57
:10319000952F05C08E2F732F02C07E2F852F692F8C
:1031A000DF91CF911F910F91FF90EF90089541E033
:1031B0000E94471808950E94D7180895CF93DF936F
:1031C000762FE901682F842F0E94DB1879836883AA
:1031D0008A83DF91CF9108958091DC02982F969594
:1031E000913021F0817082608093DC02089588E044
:1031F00090E00C94152DCF92DF92EF92FF926B012D
:103200007C010E94EC18B701A60188E090E0FF90D5
:10321000EF90DF90CF900C94332DECEDF2E083E053
:10322000808311828FEF8283838314826081718116
:10323000828193810C94FB189091E002933018F4F2
:103240009F5F9093E002882351F06091DC027091BF
:10325000DD028091DE029091DF020C94FB1808954C
:1032600081E00C941C199091E002992319F091507F
:103270009093E002882351F06091DC027091DD02AE
:103280008091DE029091DF020C94FB18089581E09A
:103290000C94331970E00C94331B60912E018091D3
:1032A000DC0280FF0AC080912D0123E0829FC001D3
:1032B00011248F519D4F0C944A1980912F019091A8
:1032C0003001891780F7E82FF0E09F01220F331FAC
:1032D000E20FF31FEF51FD4F1182108212828F5FB8
:1032E000F0CFECEDF2E080818E7F80836081718190
:1032F000828193810E94FB182FEF80E792E021509A
:1033000080409040E1F700C000000C944D1990916E
:10331000DC0290FF16C090912F012091300192178E
:1033200070F4E92FF0E0DF01AA0FBB1FEA0FFB1FCB
:10333000EF51FD4F8183608342839F5FF0CF0C94F8
:103340004D190895EF92FF920F931F93CF93DF9340
:1033500000D01F92CDB7DEB79091DC0290FF2CC059
:10336000E22E142F062FF82EE92FE695F0E0EE540A
:10337000FE4F8081809375029E7F923059F49E01AA
:103380002F5F3F4F8F2D0E94DE184B8169818A810C
:103390000E948719F092DD020093DE021093DF0293
:1033A000EE2051F06091DC027091DD028091DE022E
:1033B0009091DF020E94FB180F900F900F90DF9109
:1033C000CF911F910F91FF90EF900895ECEDF2E0F7
:1033D0009181282F4381628188E0890F0C94A21982
:1033E00081E00C94E619ECEDF2E09181282F438105
:1033F000628188EF890F0C94A21981E00C94F31973
:10340000ECEDF2E0628121E1620F08F46FEF282F0A
:10341000438181810C94A21981E00C94001AECED97
:10342000F2E0628121E1621B08F460E0282F438111
:1034300081810C94A21981E00C940F1AECEDF2E05A
:10344000438121E1420F08F44FEF282F62818181EF
:103450000C94A21981E00C941E1AECEDF2E0438169
:1034600021E1421B08F440E0282F628181810C9405
:10347000A21981E00C942D1A20E00C94A2198091DD
:10348000DC0280FF18C0817082608093DC026623BA
:1034900051F06091DC027091DD028091DE0290912A
:1034A000DF020E94FB184091DF026091DE028091F2
:1034B000DD020C943C1A0895682F81E00C943F1AA9
:1034C00081E00C945C1A682F9091DC0296958FEF46
:1034D000890F09F481E00C943F1A81E00C94631A7F
:1034E00061E00C943F1AECEDF2E080818160808312
:1034F00086950C94701A8091DC0280FD0C947119F1
:103500000C94731A60E00C943F1A8091740281113C
:103510002CC00E94CA0F811104C00E9472100E9428
:103520000D190E94F7186093DC027093DD028093FE
:10353000DE029093DF026E7F61F40E940D190E94FB
:10354000F7186093DC027093DD028093DE029093A3
:10355000DF020E94EC188091DC0280FF03C0869598
:103560000E94821A81E0809374020895882311F0EA
:10357000FA0101C0FB0109941F93CF93DF93FB0174
:10358000128111116BC0EC010E94E70E8272CA3CDD
:10359000FCE5DF0709F450C0C0F4C63CECE5DE07EB
:1035A000E1F148F4C43C9CE5D90759F178F5C33CF6
:1035B000DC4521F121C0C83C9CE5D90799F1B8F55B
:1035C00040EF59E16DEF79E125C0CE3CFCE5DF0726
:1035D00009F441C050F4CC3CECE5DE0791F1B0F5C4
:1035E0004AE25AE169E37AE115C0C73D8CE5D807A4
:1035F000A8F1CE35DD4591F111E030C00E947B1A73
:103600002DC04DE65AE160E67AE104C040E65AE199
:103610006DE67AE10E94B61A21C04DEF59E160EFE4
:1036200079E1F8CF4BE15AE16CE07AE1F3CF4CE07D
:103630005AE16BE17AE1EECF49E35AE16AE27AE1DD
:10364000E9CF47E459E160E379E1E4CF40E359E1B0
:1036500067E479E1DFCF81E00E94701A812FDF916A
:10366000CF911F910895539A2BB1277F3BB13860BA
:103670004FB7F894FC01CB01880F991F680F791F91
:103680006E0F7F1FE617F70789F0819198E03BB92D
:10369000000000C087FF2BB9880F000000C000C0E9
:1036A00000C02BB900C09A9591F7ECCF4FBF8FE5C2
:1036B00094E00197F1F700C0000008950895FC011F
:1036C000680F791F8FEF91E3E617F70771F02191EB
:1036D000822728E030E087FF03C0880F892701C0D8
:1036E000880F21503109B9F7EFCF0895EF92FF927B
:1036F0000F931F93CF93DF93EC017B0164E670E09F
:1037000088E70E9471218C01EC0EFD1ECE15DF05AD
:1037100061F017FD0AC0FE01849164E670E00E942A
:10372000F2218C012196892B89F30E947622C8010F
:10373000DF91CF911F910F91FF90EF900895089521
:103740000C949F1BE9EFF2E080E092E0DF019C0126
:103750001D9221503040E1F7F0930005E093FF0403
:103760008FEF9FEF9093A3028093A20208950E948F
:10377000A01B0E949F1B80939E0280FD02C080E8D8
:1037800001C080E280939D020E946B216DE070E099
:103790008AE593E00E94761B892B11F080E0089562
:1037A00080919E0263E070E081FD03C087E593E0B5
:1037B00002C084E593E00E94761B892B79F76DE0C7
:1037C00070E087E493E00E94761B892B39F70E9412
:1037D0008625DC01CB01805A9541AF4FBF4F8093C6
:1037E000FB049093FC04A093FD04B093FE040E949C
:1037F000A21B81E08093A1028093A00210929F02FD
:10380000089520919D0236E0839FC0011124629F9C
:10381000800D911D1124811522E0920714F080E0A3
:1038200090E087509D4F909300058093FF0408958A
:103830002091FF0430910005235F324040919D02AA
:10384000642F70E0C9010E94C02C481B463010F460
:10385000240F311D211582E0380710F020E030E000
:1038600027503D4F309300052093FF040895CF93D8
:10387000DF938A3011F481E003C08D3029F480E0B9
:10388000DF91CF910C94AD1CC62F682F8091FF045F
:103890009091000526E0FC01A7E7B2E001900D92AF
:1038A0002A95E1F7603E30F026E0FC0111922A955E
:1038B000E9F70AC0F6E06F9FB001112469597C4F07
:1038C00046E050E00E94EE2CC11135C0C091FF04CB
:1038D000D091000546E050E0BE0187E792E00E94EB
:1038E000F72C892BB1F1C95FD2409E0185E0369556
:1038F00027958A95E1F781E090E0AC0102C0440F82
:10390000551F2A95E2F72091A2023091A302242BA1
:10391000352B259645E0D695C7954A95E1F702C027
:10392000880F991FCA95E2F7822B932B9093A302DD
:103930008093A2020EC0E091FF04F09100059F0168
:103940002A5F3F4F2E173F0709F2808180958193B0
:10395000F9CFDF91CF910C94181CCF93E82F2091D1
:10396000FF0430910005295F324040919D02642F91
:1039700070E0C9010E94C02C481B842FEE2359F02F
:1039800066E00E94B42CC82FC150B0F060E080E225
:103990000E94371CF9CFA901480F511D4115524013
:1039A00018F080E020E030E0280F311D27503D4F17
:1039B000309300052093FF04CF9108951F93CF9378
:1039C000DF93EC01162FFE018491882329F0612FEB
:1039D0000E94371C2196F7CFDF91CF911F91089558
:1039E0008091A1028823F9F00E948625DC01CB0199
:1039F000805A9541AF4FBF4F8093FB049093FC04D6
:103A0000A093FD04B093FE048091A00281110BC02D
:103A100062E070E085E493E00E94761B892B19F444
:103A200081E08093A0028091A00208956F927F921E
:103A30008F929F92AF92BF92CF92DF92EF92FF92BE
:103A40000F931F93CF93DF938091A102882309F4F2
:103A5000DCC02091A2023091A3022115310509F4A6
:103A6000D4C080919F028111D0C061E070E0082F26
:103A700010E03B01082E02C0660C771C0A94E2F7A6
:103A8000A90146215721452B11F48F5FF0CF90916A
:103A90009E02980165E0220F331F6A95E1F790FDC1
:103AA00012C08295880F807680933401220F232FD5
:103AB000221F330B319520933701815E80933501AE
:103AC0001092380112C045E0369527954A95E1F7E6
:103AD000220F220F220F2093340110923701295F09
:103AE0002093350183E08093380124E630E047E0FD
:103AF00050E062E371E088E70E942222892B09F0FE
:103B000084C080919E0280FD23C0A80195E0440FEF
:103B1000551F9A95E1F747505D4F04E610E020E20B
:103B200030E060E488E70E944922892B09F06DC0EB
:103B30000E94F01CE301C095D0958091A202909163
:103B4000A302C823D923D093A302C093A2025DC0CD
:103B500080E2EDE7F2E0DF011D928A95E9F785E06A
:103B6000000F111F8A95E1F7A8EBB1E044EB51E09B
:103B7000992493942D91EA018991AE01B801680FBF
:103B8000711D67507D4F30E023583D4FF90197E09C
:103B90007F01E21AF30AA92C01C0AA0CEA94EAF701
:103BA0007B01B12CE70189917E018A21892E8B1836
:103BB000D82DD770CD2E0D2E000CDD08C82F01C0DA
:103BC000CC0FDA95EAF7D194C194D108D7E0CD2291
:103BD000DD2401C08695CA94EAF78C2BD0808D290C
:103BE0008083B39488E0B812DDCF915031969F3F27
:103BF00079F6C1E0AC3BBC0709F0BCCF04E610E0AD
:103C000020E230E04DE752E08CCFDF91CF911F9161
:103C10000F91FF90EF90DF90CF90BF90AF909F906B
:103C20008F907F906F9008958091A1029091A00253
:103C3000882389F0992369F062E070E083E493E0DF
:103C40000E94761B892B19F08091A0020895109292
:103C5000A0029091A00281E0892708950C94FF04AE
:103C60000F931F938091A102882399F18091F90409
:103C70009091FA040E949225C29760F00E947A25E2
:103C80009093FA048093F90460E080E00E94011CA4
:103C90000E942E1E0E94161D8091A0028823C9F04A
:103CA0000E9486250091FB041091FC042091FD04E4
:103CB0003091FE04DC01CB01801B910BA20BB30BF6
:103CC0008F3F9F4FAF4FBF4720F41F910F910C9430
:103CD000141E1F910F910895CF93DF93EC01FB0108
:103CE0008281882309F43CC1C430FDE5DF0760F41C
:103CF000CB3F9CE5D90788F49E0122503C452431F6
:103D0000310508F02EC109C0C236EDE5DE0729F005
:103D1000C63AFDE5DF0709F024C10E94DD0F90934C
:103D2000C9028093C802C1318CE5D80709F4C6C026
:103D300008F042C0C930ECE5DE0709F49BC000F58D
:103D4000C5308CE5D80709F485C078F4C330ECE5BC
:103D5000DE0709F478C008F07AC0C230DC4509F00B
:103D6000F5C08091C8028160EFC0C7309CE5D907DB
:103D700009F478C008F07AC08091C8028061E4C07C
:103D8000CD30FCE5DF0709F487C058F4CB309CE563
:103D9000D90709F479C008F07BC08091C802886017
:103DA0006FC0CF30FCE5DF0709F480C008F082C0A7
:103DB0008091C802877FC8C0CE3F9CE5D90709F42F
:103DC00071C000F5C531FCE5DF0709F485C068F472
:103DD000C3319CE5D90709F475C008F095C00E946D
:103DE00096098091C8028F77AFC0CC3FFCE5DF0712
:103DF000A9F108F054C0CB3FDC4509F0A7C0809181
:103E0000C90240C0C230EDE5DE0709F489C058F4AC
:103E1000C1158DE5D80709F45AC008F069C0809132
:103E2000C90282602FC0C236EDE5DE0709F47CC00E
:103E3000C63AFDE5DF0709F481C0C330DD4509F06E
:103E400085C080E06EC08091C80282607DC0809194
:103E5000C80216C08091C802886076C08091C902ED
:103E600082604FC08091C80280626EC08091C8029B
:103E700080646AC00E9496098091C802806864C00C
:103E8000846062C081603DC08091C8028E7F5CC04A
:103E90008091C8028D7F58C08091C80216C0809161
:103EA000C90218C08091C9028D7F2BC08091C802C1
:103EB0008F7E4AC08091C8028F7D46C08091C80223
:103EC0008F7B42C08091C802877F8B7F3DC08091ED
:103ED000C9028D7F8E7F15C08091C80282FB222788
:103EE00020F991E0922790FB82F990FB83F92CC096
:103EF0008091C902982F909591708E7F892B90FBAD
:103F000081F98093C90222C00E9496098091C8025B
:103F100087FB222720F991E0922790FB87F914C0B4
:103F200081E00E94741012C08091C80284FB222795
:103F300020F991E0922790FB84F906C08091C80295
:103F4000982F909590FB80F98093C8028091C802C9
:103F50009091C9020E94EE0F0E94960980E001C074
:103F600081E0DF91CF9108958FE891E00197F1F71B
:103F700000C0000008950C940A0584988C9A259836
:103F80002D9A0E94B41F8FB1829581701D9902C035
:103F900090E001C092E0892B8093A90290910401E6
:103FA00081E098279093A502891B8093A40208952D
:103FB000CF93E091A902EE0FEE0FE093A9024FB16B
:103FC00044FB882780F990E043B145FB222720F984
:103FD00030E045FF02C022E030E0822B932B8E2B95
:103FE0008093A902C091A5028F70E82FF0E0E454FD
:103FF000FE4F90818091A802890F8093A80284309F
:104000006CF0EC2FF0E0EA55FD4F80818F5F8083EC
:1040100060E08C2F0E94BB1F21E001C020E0809156
:10402000A8028D3F64F4EC2FF0E0EA55FD4F80814B
:104030008150808361E08C2F0E94BB1F21E0809122
:10404000A802082E000C990B64E070E00E94D42CAA
:104050008093A802822FCF910895E091A502F0E00D
:10406000EA55FD4F2081FC0120830895FF920F93B4
:104070001F93CF93DF93D091A4020D2F10E00A5528
:104080001D4FFC01C081F8018081C81BFC2E80E01F
:104090001F145CF4FA94F80180818F5F808360E0E4
:1040A0008D2F0E94BB1F81E0F3CF9C2FC7FD90E0B6
:1040B000C91BCC2359F0CF5FF801808181508083E8
:1040C00061E08D2F0E94BB1F81E0F3CF882339F080
:1040D000DF91CF911F910F91FF900C948C10DF9185
:1040E000CF911F910F91FF900895CF93DF93863169
:1040F0009C4541F5EB010E94E70E982F8A812091A3
:10410000020130910301882379F09A7A81E009F461
:1041100080E08093AA02911102C069E201C065E3C8
:10412000C9010E94D4240AC08091AA02811102C050
:1041300069E201C065E3C9010E94D6240E94290FEB
:1041400080E001C081E0DF91CF9108950F931F932C
:10415000CF93DF93C42FD22FFC0182818823C9F033
:104160004093AD020E947A259093AC028093AB02FB
:1041700080E28C0F883008F057C0C77081E001C022
:10418000880FCA95EAF7DF91CF911F910F910C9498
:10419000F3068091AD02481330C08091AB0290913C
:1041A000AC020E949225883C910538F510E21D0F63
:1041B000CD17B9F080E28C0F883040F4C77081E0F1
:1041C00001C0880FCA95EAF70E94FA06183028F550
:1041D00081E09D2F977001C0880F9A95EAF70E94A1
:1041E000F306802F0E94EA061830F0F4D77081E0C1
:1041F00001C0880FDA95EAF70AC080E28C0F883098
:1042000098F4C77081E001C0880FCA95EAF7DF9182
:10421000CF911F910F910C94FA06802FDF91CF91CF
:104220001F910F910C94EA06DF91CF911F910F918E
:1042300008950F939C01CB01243F4CE5340731F1E5
:1042400088F4293DFCE53F07D9F02A3D4CE53407C9
:1042500079F1283D3C45A9F506E221EE41EE68EDF5
:104260007CE52BC0263FFCE53F07E1F0A8F0273FA7
:104270003C4539F507E225EE46EE67EF7CE51DC0CB
:1042800007E225EE45EE69ED7CE517C006E221EE7A
:1042900040EE64EF7CE511C007E225EE44EE65EFE9
:1042A0007CE50BC006E221EE42EE66EF7CE505C040
:1042B00008E221E045EE6AED7CE50E94A62080E060
:1042C00008C0FC018281882319F01092AD0201C060
:1042D00081E00F9108951092B9008CE08093B800AE
:1042E00008959F92AF92BF92CF92DF92EF92FF928A
:1042F0000F931F93CF93DF93B82EEB010E947A2583
:104300006C01C431D10558F0CF3F8FEFD80759F079
:10431000CE0164E170E00E94C02C7B0107C0EE2456
:10432000E394F12C03C025E0E22EF12C84E8A82EC2
:1043300094EA992E1092BC009092BC000E947A25BB
:104340008C018091BC0087FD08C00E947A25801BEB
:10435000910B8E159F05A8F32AC08091B900887F24
:10436000883041F08091B900887F803119F00FEFDB
:104370001FEF1FC0B092BB00A092BC000E947A2524
:104380008C018091BC0087FD08C00E947A25801BAB
:10439000910B8E159F05A8F30AC08091B900887F04
:1043A000883111F0803419F700E010E00EC00EEFF4
:1043B0001FEFCF3F8FEFD80709F4BCCFC6010E9493
:1043C00092258C179D0708F4B5CFC801DF91CF91D6
:1043D0001F910F91FF90EF90DF90CF90BF90AF9023
:1043E0009F9008950F931F93CF93DF93EB018093DA
:1043F000BB0084E88093BC000E947A258C018091E8
:10440000BC0087FD0EC0CF3F8FEFD807C1F30E94DD
:104410007A25801B910B8C179D0788F38EEF9FEFF9
:104420000CC02091B900287F81E090E0283211F47F
:1044300080E090E0919581959109DF91CF911F9156
:104440000F910895CF92DF92EF92FF920F931F93F7
:10445000CF93DF936B018A017901B9010E94712129
:10446000E6010C0D1D1DC017D10761F424E920934E
:10447000BC00DF91CF911F910F91FF90EF90DF90E3
:10448000CF90089597FDF2CFB70189910E94F22154
:10449000EACFCF92DF92EF92FF920F931F93CF93C9
:1044A000DF93C62F6A017901B8010E94712197FD3F
:1044B00011C0B8018C2F0E94F221E601EC0CFD1C0A
:1044C000CE15DF0539F097FD05C0B80189910E942E
:1044D000F221F6CF24E92093BC00DF91CF911F9108
:1044E0000F91FF90EF90DF90CF90089584E9809333
:1044F000BC0008958EE14A9B02C08150E1F74A9BBF
:10450000FECF08955A9880E28A95F1F75A9A089555
:10451000FC012AE02A95F1F728E090E080E031E004
:1045200040E14A95F1F7880F4A9B02C081609327CA
:1045300000C0000040E14A95F1F7215089F720E1E1
:104540002A95F1F729B100C0000030E13A95F1F762
:1045500022FB222720F992272081920F9083089531
:10456000EF92FF920F931F93CF93DF931F92CDB7DC
:10457000DEB719828C017C01E60EF11C0E151F05B9
:1045800051F00E947A22CE0101960E948822F80101
:1045900081938F01F3CF81E09981911180E00F9099
:1045A000DF91CF911F910F91FF90EF900895529A54
:1045B0005A9A089552985A9AEA9AE9E6F0E0808168
:1045C0008F7C80830895615091E001C0990F6A95B6
:1045D000EAF720E031E0992361F0492F482319F0F0
:1045E0005A9A232701C05A9840E24A95F1F79695C6
:1045F000F2CF222311F05A9A01C05A9880E28A958C
:10460000F1F75A980895FF920F931F93CF93DF937A
:10461000EC018C01060F111DC017D10741F0F99074
:104620000E94822268E08F2D0E94E322F5CFDF9165
:10463000CF911F910F91FF9008951F920F920FB687
:104640000F9211240F931F932F933F934F935F93D8
:104650006F937F938F939F93AF93BF93EF93FF934A
:10466000CF93DF931F92CDB7DEB719820E947A22D3
:10467000CE0101960E948822082F06950695069580
:10468000902F96959570202F2570920F292F2370CB
:1046900096959695920F877089135FC089818111D5
:1046A0005CC0063008F059C080E18A95F1F75A9A4B
:1046B000529A82E08A95F1F700C05A9888E0089FE4
:1046C00080011124D801AB5FBE4F1696ED91FC918D
:1046D00017973097A9F06091B0017091B1011496CD
:1046E0002D913C911597260F371F11968D919C9116
:1046F0001297680F791F13964C9113978C91099517
:10470000F801EB5FFE4F6381662351F08091B001A9
:104710009091B10124813581820F931F0E94032360
:104720000E94822280E18A95F1F75A9852985A9A0B
:1047300080E18A95F1F7F801EB5FFE4F6081662317
:1047400051F08091B0019091B10121813281820FAD
:10475000931F0E94B0220E947A220F90DF91CF9186
:10476000FF91EF91BF91AF919F918F917F916F9149
:104770005F914F913F912F911F910F910F900FBE1D
:104780000F901F9018950F931F93CF93DF93863050
:1047900091050CF06DC0EC01F894529A5A9885E09E
:1047A0008A95F1F700009C2F969595702C2F257017
:1047B000920F892F83709695969523E0CC0FDD1F7D
:1047C0002A95E1F7980F8E01092B0E94822284E03E
:1047D0008A95F1F700C068E0802F0E94E32280E113
:1047E0008A95F1F752985A9A4A9902C000C0FCCFB4
:1047F00087E090E04A9B08C0019721F4529A5A9AA8
:10480000789436C000C0F6CFFE01EB5FFE4F6381A7
:10481000662381F08091B0019091B10124813581AE
:10482000820F931F0E94B022811104C0529A5A9A9B
:1048300078941FC00E947A2280E28A95F1F75A98F4
:10484000529A80E18A95F1F7CB5FDE4F688166234B
:1048500051F08091B0019091B10129813A81820F8C
:10486000931F0E9403230E948222789481E001C05A
:1048700080E0DF91CF911F910F9108959093CD012A
:104880008093CC0108959093B4028093B30208956D
:104890000E949C15811103C08091AE020895E091A1
:1048A000B302F091B402309721F00190F081E02D35
:1048B000099480E00895E091B302F091B40230973A
:1048C00021F00280F381E02D099408952091B10236
:1048D0003091B2022817390771F09093B202809399
:1048E000B102E091B302F091B402309721F006805A
:1048F000F781E02D099408952091AF023091B00224
:104900002817390771F09093B0028093AF02E091BD
:10491000B302F091B402309721F00084F185E02DCC
:1049200009940895FC01329697E080E0915029F0B7
:1049300021912223D9F38F5FF9CF0895662349F09F
:10494000FC01329608962191621729F0E817F907C1
:10495000D1F780E0089581E008959C01FC01329632
:104960009FEF80E04191461789F09F3F19F4411174
:1049700001C0982F8F5F8630A9F79F3F39F0F9016A
:10498000E90FF11D97FDFA956283089508959C0142
:104990002A5F3F4FFC014281461301C012820196FB
:1049A00082179307B9F708950C94AD240C94C7248B
:1049B000029626E0FC0111922A95E9F708950895E0
:1049C0000C94DF2483E08093B5020C94E0248111E1
:1049D00002C081E001C082E08093B5020C94E02423
:1049E0000C94E72481E08093B5020C94E0240C94AD
:1049F000F22408950C94F9240C94FA240C94F924CC
:104A00000C94F9240C94F924CF930E9400250E9461
:104A100011150E94FE24C0E08C2F0E94D613811134
:104A200004C0CF5FC830C1F701C081E0CF910895C5
:104A300008951F920F920FB60F9211248F939F9398
:104A4000AF93BF938091B602811113C0809101058D
:104A500090910205A0910305B09104054196A11D16
:104A6000B11D8093010590930205A0930305B093B7
:104A70000405BF91AF919F918F910F900FBE0F9042
:104A80001F90189580910905843031F10E94DC0552
:104A90001092B60220E488E190E00FB6F894A89551
:104AA000809360000FBE2093600083B7817F846095
:104AB00083BF83B7816083BF7894889583B78E7FE7
:104AC00083BF0FB6F894A8958091600088618093A9
:104AD0006000109260000FBE08950E9496090C9429
:104AE000E20582E084BD93E095BD9AEF97BD809387
:104AF0006E0008952FB7F8948091010590910205FA
:104B0000A0910305B09104052FBF08952FB7F89425
:104B10006091010570910205809103059091040553
:104B20002FBF08959C014FB7F89480910105909193
:104B30000205A0910305B09104054FBF821B930BA2
:104B40000895CF92DF92EF92FF922FB7F894C09022
:104B50000105D0900205E0900305F09004052FBFF9
:104B6000A7019601261B370B480B590BCA01B90147
:104B7000FF90EF90DF90CF90089578941F920F925E
:104B80000FB60F9211248F939F93AF93BF93809191
:104B9000010590910205A0910305B09104050196CD
:104BA000A11DB11D8093010590930205A0930305FB
:104BB000B0930405BF91AF919F918F910F900FBE5D
:104BC0000F901F90189587E797E7909301088093BF
:104BD00000089AE088E10FB6F894A89580936000E9
:104BE0000FBE90936000FFCF8091C2020895089598
:104BF000CF93DF9321E02093E9002FEF3091E8007D
:104C0000215035FD06C035ED3A95F1F70000211130
:104C1000F5CF2091E80025FF14C0EC0140E050E002
:104C200068E070E00E9404288091E8008E7780930D
:104C3000E80088E0FE01AAEBB2E001900D928A95AF
:104C4000E1F7DF91CF9108958093B7027093B90295
:104C50006093B80280910905843001F582E0809369
:104C6000E9008FEF9091E800815095FD06C095ED29
:104C70009A95F1F700008111F5CF8091E80085FF4A
:104C80000DC040E050E063E070E087EB92E00E94EE
:104C900004288091E8008E778093E8000895BC0195
:104CA00084E00C942426BC0183E00C94242608950F
:104CB00080910805811109C00E9495290E94F2295E
:104CC0008091E20084608093E200089510920805CC
:104CD00008950C94F7246091050581E0611101C0ED
:104CE00080E00C94E2249091090581E0943009F071
:104CF00080E0609105050C94E72442E061EC81E0DE
:104D00000E940E2942E261EC82E00E940E299091FD
:104D1000090581E0943009F080E0609105050C946C
:104D2000F02480910B05833009F461C030F48130A8
:104D300071F0823009F49AC008958A3009F486C06F
:104D40008B3009F46CC0893009F0A8C020C0809174
:104D50000A05813A09F0A2C08091E800877F80931C
:104D6000E80080910E0590910F05892B21F468E0F1
:104D70008AEB92E003C060E080E090E070E00E9487
:104D80004F288091E8008B778093E8000895809108
:104D90000A05813209F082C080910E0590910F05BD
:104DA000029708F07BC08091E800877F8093E8003D
:104DB0008091E80082FD05C0809109058111F8CF3E
:104DC0006DC02091F3008091F20090E0922B029749
:104DD00031F48091F100813011F0863021F480911E
:104DE000F1008093C2028091E8008B7753C08091DC
:104DF0000A05813A09F052C080910E0590910F0585
:104E0000892B09F04BC08091E800877F8093E800F0
:104E10008091E80080FFFCCF8091450136C08091F1
:104E20000A058132D9F580910E0590910F05892BE5
:104E3000A9F58091E800877F8093E8000E944329CC
:104E400080910C05809345010C94960980910A0588
:104E5000813221F58091E800877F8093E8000E94ED
:104E6000432980910D058093C302089580910A051E
:104E7000813AA1F48091E800877F8093E8008091D7
:104E8000E80080FFFCCF8091C3028093F100809105
:104E9000E8008E778093E8000C944329089584B746
:104EA000877F84BF0FB6F894A895809160008861D1
:104EB00080936000109260000FBE90E080E80FB613
:104EC000F89480936100909361000FBE0C94F224DB
:104ED0000E9495290E94F229E2EEF0E08081846030
:104EE000808378940C94872C89E391E00C9443247C
:104EF000809109058530A9F480910905853079F400
:104F00000E944225809107058823B1F30E94042561
:104F1000882391F30E94EE270E949609EDCF0C940E
:104F20006D25089508950C949527292F3327233054
:104F30003105C9F060F42130310581F022303105AE
:104F400009F044C08BE390E02DEE38E043C02132FD
:104F50003105E1F02232310549F138C082E190E0BB
:104F600028E239E037C099278130910549F028F0CF
:104F7000029761F5E7EAF8E005C0E9EEF8E002C063
:104F8000EFEBF8E0849190E09F0124C0611571057A
:104F900041F061307105D1F489E090E028E139E019
:104FA00019C089E090E02FEF38E014C06115710559
:104FB00041F06130710551F482E390E02AE339E079
:104FC00009C080E490E02CE639E004C080E090E085
:104FD00020E030E0FA0131832083089580E189BD2B
:104FE00082E189BD09B400FEFDCF8091D8008F7D9C
:104FF0008093D8008091E00082608093E0008091EF
:10500000E00081FDFCCF0895CF92DF92EF92FF92F6
:105010000F931F93CF93DF93EC018B017A010E94D2
:105020006229811133C0E114F10439F0F701808164
:105030009181081B190BC80FD91FC12CD12C011548
:10504000110519F18091E80085FD16C08091E800F6
:105050008E778093E800E114F10449F0F701808134
:105060009181C80ED91ED182C08285E00FC00E94F6
:105070006229882321F30AC089918093F1000150AD
:105080001109FFEFCF1ADF0ADACF80E0DF91CF916D
:105090001F910F91FF90EF90DF90CF900895209196
:1050A0001005309111052617370748F06115710575
:1050B00039F42091E8002E772093E80001C0B9016F
:1050C000FC0120E06115710579F1809109058823C3
:1050D000F1F18530F1F18091E80083FD3CC08091D1
:1050E000E80082FD2EC08091E80080FFEBCF209188
:1050F000F3008091F20090E0922B6115710551F060
:105100008830910538F421912093F10061507109A4
:105110000196F3CF21E0089709F020E08091E800A4
:105120008E778093E800CECF2111CFCF0AC0809137
:105130000905882361F0853061F08091E80083FDE6
:105140000AC08091E80082FFF2CF80E0089582E0FB
:10515000089583E0089581E008952091100530912D
:1051600011052617370748F06115710539F42091AC
:10517000E8002E772093E80001C0B901FC0120E08F
:105180006115710591F180910905882309F440C0EA
:10519000853009F43FC08091E80083FD3DC08091D7
:1051A000E80082FD2FC08091E80080FFE9CF2091C8
:1051B000F3008091F20090E0922B6115710559F097
:1051C0008830910540F424912093F100319661508C
:1051D00071090196F2CF21E0089709F020E0809153
:1051E000E8008E778093E800CBCF2111CCCF0AC0A6
:1051F00080910905882361F0853061F08091E80095
:1052000083FD0AC08091E80082FFF2CF80E008951C
:1052100082E0089583E0089581E00895982F973003
:1052200068F59093E900981739F07091EC0020919F
:10523000ED005091F00003C0242F762F50E021FDA7
:1052400002C09F5FECCF3091EB003E7F3093EB00CC
:105250003091ED003D7F3093ED003091EB003160F7
:105260003093EB007093EC002093ED005093F0002E
:105270002091EE0027FDE5CF80E008958F708093A8
:10528000E90081E0089580910A0587FF11C08091AF
:10529000E80082FD05C0809109058111F8CF11C099
:1052A0008091E8008B770BC080910905882349F035
:1052B0008091E80080FFF8CF8091E8008E7780939E
:1052C000E80008952091E4003091E50095E64091D2
:1052D000EC00842F817040FF23C08091E80080FDA6
:1052E0001DC080910905882399F0853099F080913F
:1052F000EB0085FD11C04091E4005091E5002417BA
:10530000350729F3915011F09A01E1CF84E0089517
:1053100082E0089583E0089581E0089580E0089593
:105320004091E80042FFDDCF08950E94032A0E94C9
:105330000B2AE0EEF0E0808181608083E8EDF0E010
:1053400080818F77808319BCA7EDB0E08C918E7F30
:105350008C9380818F7E80831092080508950F932F
:105360001F93CF93DF930E94032A0E940B2AC8ED5C
:10537000D0E088818F77888388818068888388815E
:105380008F7D888319BC1092090510920505109233
:1053900007051092060500EE10E0F80180818B7F72
:1053A000808388818160888342E060E080E00E94A1
:1053B0000E29E1EEF0E080818E7F8083E2EEF0E066
:1053C000808181608083808188608083F801808112
:1053D0008E7F8083888180618883DF91CF911F9148
:1053E0000F910895E8EDF0E080818F7E8083E7EDF6
:1053F000F0E080818160808384E082BF81E08093DF
:1054000008050C94AF29E8EDF0E080818E7F808361
:105410001092E20008951092DA001092E1000895CF
:105420001F920F920FB60F9211242F933F934F9319
:105430005F936F937F938F939F93AF93BF93EF93FC
:10544000FF938091E10082FF0BC08091E20082FF18
:1054500007C08091E1008B7F8093E1000E94862C41
:105460008091DA0080FF1FC08091D80080FF1BC0B0
:105470008091DA008E7F8093DA008091D90080FFDE
:105480000DC080E189BD82E189BD09B400FEFDCF78
:1054900081E0809309050E94582605C019BC10922E
:1054A00009050E9466268091E10080FF19C0809165
:1054B000E20080FF15C08091E2008E7F8093E200C1
:1054C0008091E20080618093E2008091D800806248
:1054D0008093D80019BC85E0809309050E946B2653
:1054E0008091E10084FF30C08091E20084FF2CC0F5
:1054F00080E189BD82E189BD09B400FEFDCF8091C4
:10550000D8008F7D8093D8008091E1008F7E8093BA
:10551000E1008091E2008F7E8093E2008091E200C2
:1055200081608093E20080910505882311F084E07A
:1055300007C08091E30087FD02C081E001C083E0E5
:10554000809309050E9473268091E10083FF29C0A2
:105550008091E20083FF25C08091E100877F8093E6
:10556000E10082E080930905109205058091E10039
:105570008E7F8093E1008091E2008E7F8093E20035
:105580008091E20080618093E20042E060E080E090
:105590000E940E298091F00088608093F0000E94A4
:1055A0006926FF91EF91BF91AF919F918F917F916C
:1055B0006F915F914F913F912F910F900FBE0F9080
:1055C0001F9018951F920F920FB60F9211242F93D0
:1055D0003F934F935F936F937F938F939F93AF937B
:1055E000BF93CF93DF93EF93FF93C091E900CF7008
:1055F0008091EC00D82FD17080FDD0E81092E900A6
:105600008091F000877F8093F00078940E94262B91
:105610001092E9008091F00088608093F000CD2B1B
:10562000CF70C093E900FF91EF91DF91CF91BF91CF
:10563000AF919F918F917F916F915F914F913F912A
:105640002F910F900FBE0F901F9018951F93CF931F
:10565000DF93CDB7DEB7AA970FB6F894DEBF0FBEC3
:10566000CDBFEAE0F5E08091F100819325E0E231E1
:10567000F207C9F70E9491268091E80083FF2EC1AE
:1056800080910A0590910B05492F50E04A30510551
:1056900008F024C1FA01EE59FF4F0C94E82C803831
:1056A00021F0823809F01AC108C080910605909156
:1056B0000705992389F082600FC080910E058F70D5
:1056C000873008F00BC18093E9008091EB0085FBE7
:1056D000882780F91092E9009091E800977F9093D5
:1056E000E8008093F1001092F100D1C0282F2D7FA7
:1056F00009F0F4C0882319F0823061F0EFC0809186
:105700000C05813009F0EAC0933009F080E0809305
:1057100007052EC080910C0581112AC080910E05CD
:105720008F702FEF280F263008F0D8C08093E90043
:105730002091EB0020FF1CC0933021F48091EB00FE
:10574000806214C09091EB0090619093EB0021E097
:1057500030E0A90102C0440F551F8A95E2F740933B
:10576000EA001092EA008091EB0088608093EB00E1
:105770001092E9008091E800877F8093E8000E9402
:105780004329ACC08111AAC010910C051F778091EC
:10579000E3008078812B8093E3008091E800877F8D
:1057A0008093E8000E9443298091E80080FFFCCFAD
:1057B0008091E30080688093E300111102C082E0D1
:1057C00001C083E08093090589C08058823008F0C9
:1057D00085C080910C0590910D058C3D53E0950797
:1057E00079F583E08A838AE289834FB7F894DE01F2
:1057F000139620E03EE051E2E32FF0E05093570093
:10580000E49120FF03C0E295EF703F5FEF708E2FB1
:1058100090E0EA3010F0C79601C0C0968D939D933A
:105820002F5F243149F74FBF8091E800877F809335
:10583000E8006AE270E0CE0101960E944F2816C08F
:1058400060910E0570910F05AE014F5F5F4F0E9492
:105850009327BC01892B09F441C09091E800977F00
:105860009093E80089819A810E94AD288091E80098
:105870008B778093E80032C0803881F58091E80012
:10588000877F8093E800809105058093F1008091E7
:10589000E8008E7772CF811121C080910C05909124
:1058A0000D0599270297D4F48091E800877F8093B3
:1058B000E80080910C05809305050E9443298091A2
:1058C0000505811106C08091E30087FD02C081E0DB
:1058D00001C084E0809309050E947D268091E80044
:1058E00083FF0AC08091E800877F8093E800809161
:1058F000EB0080628093EB00AA960FB6F894DEBFAF
:105900000FBECDBFDF91CF911F9108950895CF9322
:10591000809109058823A1F0C091E900CF70909192
:10592000EC00892F817090FD80E8C82B1092E9006F
:105930008091E80083FD0E94262BCF70C093E90080
:10594000CF9108950E949529109209050895E8EDD8
:10595000F0E08081806180838AE18A95F1F700C060
:105960008091D90081700895991B79E004C0991F36
:10597000961708F0961B881F7A95C9F780950895A9
:10598000AA1BBB1B51E107C0AA1FBB1FA617B70765
:1059900010F0A61BB70B881F991F5A95A9F7809581
:1059A0009095BC01CD01089597FB072E16F4009445
:1059B00007D077FD09D00E94C02C07FC05D03EF42B
:1059C000909581959F4F0895709561957F4F0895AB
:1059D000EE0FFF1F0590F491E02D0994FB01DC010F
:1059E00002C005900D9241505040D8F70895FB0138
:1059F000DC0104C08D910190801921F44150504088
:105A0000C8F7881B990B0895FB01DC0102C00190C7
:105A10000D9241505040D8F70895F999FECF92BDAC
:105A200081BDF89A992780B50895A6E1B0E044E0D9
:105A300050E00C94472DA8E1B0E042E050E00C9417
:105A4000472D262FF999FECF92BD81BDF89A019777
:105A500000B4021639F01FBA20BD0FB6F894FA9AB6
:105A6000F99A0FBE08950396272F0E94222D0E94B7
:105A7000212D252F0E94222D242F0C94222D0196BA
:105A8000272F0E94222D0C94212DDC01CB01FC013B
:105A9000F999FECF06C0F2BDE1BDF89A319600B487
:0E5AA0000D9241505040B8F70895F894FFCF92
:105AAE00C8002E02010000000100000000000000EE
:105ABE0004010000000000000105000000000000CD
:105ACE0001060000000407000000000000000800AE
